{
  "_format": "hh-sol-artifact-1",
  "contractName": "Transaction",
  "sourceName": "contracts/Transaction.sol",
  "abi": [
    {
      "inputs": [],
      "name": "addMoney",
      "outputs": [],
      "stateMutability": "payable",
      "type": "function"
    },
    {
      "inputs": [],
      "name": "decrementCounter",
      "outputs": [],
      "stateMutability": "nonpayable",
      "type": "function"
    },
    {
      "inputs": [],
      "name": "getCount",
      "outputs": [
        {
          "internalType": "uint256",
          "name": "",
          "type": "uint256"
        }
      ],
      "stateMutability": "view",
      "type": "function"
    },
    {
      "inputs": [],
      "name": "getMoneyStored",
      "outputs": [
        {
          "internalType": "uint256",
          "name": "",
          "type": "uint256"
        }
      ],
      "stateMutability": "view",
      "type": "function"
    },
    {
      "inputs": [],
      "name": "incrementCounter",
      "outputs": [],
      "stateMutability": "nonpayable",
      "type": "function"
    }
  ],
  "bytecode": "0x608060405260008055600060015534801561001957600080fd5b50610264806100296000396000f3fe60806040526004361061004a5760003560e01c80631b3f48421461004f5780635b34b96614610059578063a87d942c14610070578063e0a438fb1461009b578063f5c5ad83146100c6575b600080fd5b6100576100dd565b005b34801561006557600080fd5b5061006e6100f8565b005b34801561007c57600080fd5b50610085610113565b6040516100929190610150565b60405180910390f35b3480156100a757600080fd5b506100b061011c565b6040516100bd9190610150565b60405180910390f35b3480156100d257600080fd5b506100db610126565b005b34600160008282546100ef919061016b565b92505081905550565b600160008082825461010a919061016b565b92505081905550565b60008054905090565b6000600154905090565b600160008082825461013891906101c1565b92505081905550565b61014a816101f5565b82525050565b60006020820190506101656000830184610141565b92915050565b6000610176826101f5565b9150610181836101f5565b9250827fffffffffffffffffffffffffffffffffffffffffffffffffffffffffffffffff038211156101b6576101b56101ff565b5b828201905092915050565b60006101cc826101f5565b91506101d7836101f5565b9250828210156101ea576101e96101ff565b5b828203905092915050565b6000819050919050565b7f4e487b7100000000000000000000000000000000000000000000000000000000600052601160045260246000fdfea2646970667358221220e4787abac8b93df9a16444ab55ffe2d26b4469ce93533117bad5e066d992468e64736f6c63430008040033",
  "linkReferences": {},
  "deployedLinkReferences": {}
}