{
  "_format": "hh-sol-artifact-1",
  "contractName": "Transaction",
  "sourceName": "contracts/Transaction.sol",
  "abi": [
    {
      "inputs": [],
      "name": "addMoney",
      "outputs": [],
      "stateMutability": "payable",
      "type": "function"
    },
    {
      "inputs": [],
      "name": "getMoneyStored",
      "outputs": [
        {
          "internalType": "uint256",
          "name": "",
          "type": "uint256"
        }
      ],
      "stateMutability": "view",
      "type": "function"
    }
  ],
  "bytecode": "0x608060405260008055600060015534801561001957600080fd5b50610177806100296000396000f3fe6080604052600436106100295760003560e01c80631b3f48421461002e578063e0a438fb14610038575b600080fd5b610036610063565b005b34801561004457600080fd5b5061004d61007e565b60405161005a9190610097565b60405180910390f35b346001600082825461007591906100b2565b92505081905550565b6000600154905090565b61009181610108565b82525050565b60006020820190506100ac6000830184610088565b92915050565b60006100bd82610108565b91506100c883610108565b9250827fffffffffffffffffffffffffffffffffffffffffffffffffffffffffffffffff038211156100fd576100fc610112565b5b828201905092915050565b6000819050919050565b7f4e487b7100000000000000000000000000000000000000000000000000000000600052601160045260246000fdfea264697066735822122029b3d57e78e72177c404b46333a65d6bb21b82f81da89c5fb7d164680e6667ff64736f6c63430008040033",
  "linkReferences": {},
  "deployedLinkReferences": {}
}